S0180000476363426F61726450726F6A656374312E737265630F
S113000029C0000042C0000040C000003EC0000003
S11300103CC000003AC0000038C0000036C00000F8
S113002034C0000099C3000030C000002EC000009E
S11300302CC000002AC0000028C0000026C0000018
S113004024C0000022C0000020C000001EC0000028
S11300501CC0000011241FBECFE5D8E0DEBFCDBF19
S113006010E0A0E6B0E0EEE7F7E002C005900D92E4
S1130070AC3CB107D9F721E0ACECB0E001C01D9273
S1130080A032B207E1F732D378C3BACF0895181675
S1130090190644F421E030E000002F5F3F4F82173F
S11300A09307D4F70895181619066CF421E030E08C
S11300B0E9EFF0E03197F1F700C000002F5F3F4F08
S11300C082179307ACF70895CF93C82F8BB38F7023
S11300D09C2F907F892B8BBBD898D998DA9A81E092
S11300E090E0D5DFDA9884E190E0D1DF8BB3282F5C
S11300F02F7030E1C39FC0011124822B8BBBDA9A8D
S113010081E090E0C4DFDA9884E690E0C0DFCF912C
S11301100895CF93C82F8BB38F709C2F907F892B1A
S11301208BBBD89AD998DA9A81E090E0B0DFDA985C
S113013084E190E0ACDF8BB3282F2F7030E1C39FB4
S1130140C0011124822B8BBBDA9A81E090E09FDFFF
S1130150DA98CF9108958FEF8ABBDA9880ED97E013
S113016096DF83E3B1DF82E3AFDF88E2ADDF8EE0C9
S1130170ABDF81E0A9DF80ED97E089DF86E0A4CFE3
S11301800895CF93DF9300D000D0CDB7DEB790E8C9
S1130190998390EC9A8394E99B8394ED9C83FE016C
S11301A0E60FF11D81509081890F8EDF0F900F9023
S11301B00F900F90DF91CF91089580EF84BB8FEF64
S11301C085BB089585B38F7085BB83B38F7080938F
S11301D01E018F30B9F784E190E065DF83B38F703F
S11301E080931E018F30B9F384E190E05CDF83B328
S11301F08F7080931E018F3071F38FEE85BB83B3B4
S11302008F7080931E018F3019F010921F0121C04E
S11302108FED85BB83B38F7080931E018F3021F0E7
S113022081E080931F0115C08FEB85BB83B38F7072
S113023080931E018F3021F082E080931F0109C05A
S11302408FE785BB83B38F7080931E0183E0809317
S11302501F0180911E018E3059F4E0911F01F0E0DE
S1130260EE0FFF1FEE0FFF1FE654FF4F808108952E
S11302708D3059F4E0911F01F0E0EE0FFF1FEE0FF7
S1130280FF1FE654FF4F818108958B3059F4E091AC
S11302901F01F0E0EE0FFF1FEE0FFF1FE654FF4FAC
S11302A082810895E0911F01F0E0EE0FFF1FEE0F31
S11302B0FF1FE654FF4F838108951092CD008BE712
S11302C091ED9DBD8CBD1FBC83E08EBD0895209132
S11302D0CB00213478F030E020543109F901EE0FDD
S11302E0FF1FEE0FFF1F2E0F3F1FF901E253FF4FB9
S11302F080830895213378F030E021533109F901E6
S1130300EE0FFF1FEE0FFF1F2E0F3F1FF901E253E9
S1130310FF4F84830895213278F030E0215231096F
S1130320F901EE0FFF1FEE0FFF1F2E0F3F1FF90104
S1130330E253FF4F83830895213178F030E0215157
S11303403109F901EE0FFF1FEE0FFF1F2E0F3F1FA4
S1130350F901E253FF4F8283089530E021503109BF
S1130360F901EE0FFF1FEE0FFF1F2E0F3F1FF901C4
S1130370E253FF4F818308950F931F93CF93082F68
S113038010E003531F4FC0E0CF5F61E08C2FF9DE14
S1130390F8018081BEDE62E08C2FF3DE80E0B9DEFE
S11303A00B5F1F4FC03181F762E081E0EADECF913D
S11303B01F910F9108950F931F93CF93082F10E06F
S11303C003531F4FC0E0CF5F61E08C2FDADEF801EA
S11303D080819FDE62E08C2FD4DEF801818199DE7A
S11303E00B5F1F4FC03179F762E080E1CADECF9125
S11303F01F910F9108950F931F93CF93082F10E02F
S113040004531F4FC0E0CF5F61E08C2FBADEF801C8
S113041080817FDE62E08C2FB4DEF801818179DE99
S11304200B5F1F4FC03179F762E080E1AADECF9104
S11304301F910F9108958091CB00982F9F7E913248
S113044009F43FC0813441F441C08091CA008F5FF8
S11304508093CA0091CF0895873438F062E086E033
S113046090DE85E08093CA0008959FEB980F963044
S113047038F462E0805485DE85E08093CA000895F4
S1130480813338F062E080537CDE84E08093CA00DC
S11304900895813238F062E0805273DE83E0809305
S11304A0CA000895813138F062E080516ADE82E04A
S11304B08093CA00089561E064DE81E08093CA00FD
S11304C008959091CC009111D0CFBFCF9091CC00E2
S11304D09111CFCFBACF81E08093CC0080E0F7DEDA
S11304E08091CB00982F9F7E913211F0813419F4C2
S11304F08091CA0080DF8091CB00823018F0815057
S11305008093CB0098DF80E004DE95DF1092CC006E
S11305100895CF93C82F8DEF8C0F823090F4809183
S1130520CA00C81770F48C2F46DF4CDE8B3221F4DE
S113053081E08C0FEEDF05C08D3219F48FEF8C0F44
S113054009D08091CA00833018F08F5F54DF73DFC5
S1130550CF910895CF93C82F833050F04CDF32DE13
S11305608D3271F48FEF8C0FF5DF02C08C2FD1DF49
S11305708091CA00833038F08F5F3DDF5CDF03C0B9
S11305808B32B1F7F3CFCF910895CF9381E09CDD07
S113059080ED97E07CDD20E015C0822F90E0AC0177
S11305A0440F551F440F551F840F951F82539F4FAF
S11305B0FC01EC0FF11D1082CF5FC630C9F72F5F2D
S11305C0213119F0C63048F3FACF81E08093CB0093
S11305D08093CA0030DFCF910895EF92FF920F937A
S11305E01F93CF93DF93D82F26DF80ED8D0FE82E56
S11305F0F12C8701000F111F000F111F000F111F95
S11306000E0D1F1D005A1F4FF801818182DDF80174
S113061081815DDEC1E0780150DED4DD9091CD00B2
S1130620911119C0D81323C0CF5FC93040F4F7012A
S1130630EC0FF11D80818F3219F4C0E001C0C0E0DD
S1130640FADE87010C0F111DF801808162DDF801CB
S113065080813DDEE1CF913051F4D81308C0809100
S1130660CB008F5F8093CB008D2FB7DF38C0909184
S1130670CB009F5F9093CB0090ED980F9A3010F4CD
S1130680ACDF2DC08E3459F4D6DE8AE242DD8AE234
S11306901EDE8091CB008F5F8093CB0020C08D3312
S11306A059F4C9DE83E235DD83E211DE8091CB00AB
S11306B08F5F8093CB0013C08F3211F40CDF0FC017
S11306C08B3221F48091CA0024DF09C08D3221F4D9
S11306D08091CA003FDF03C0883509F456DFDF91FB
S11306E0CF911F910F91FF90EF900895CFDC33DDF0
S11306F064DDA1DE84E089BF789464DD90ED980F19
S11307009A3010F46ADFF9CF8F3211F4E4DEF5CFBA
S1130710883511F43ADFF1CF8E3471F08D3371F0F6
S11307208B3221F48091CA00F4DEE7CF8D3241F49C
S11307308091CA000FDFE1CFCAE203C0C3E201C067
S1130740C6E279DE8C2FE5DC8C2FC1DD8091CB00F5
S11307508F5F8093CB00D1CF1F920F920FB60F9271
S113076011248F931FBC1EBC81E08093CD008F9118
S11107700F900FBE0F901F901895F894FFCFB6
S113077E302028292D2B3D5B5D312E2C3F2140242A
S113078E2526326162634142432F2F3364656644EA
S113079E45462F2F346768694748492F2F356A6BB2
S11307AE6C4A4B4C2F2F366D6E6F4D4E4F2F2F378D
S11307BE7071727350515253387475765455562F56
S11307CE2F397778797A5758595A4E303D2B313222
S10F07DE332D343536583738392F0101DB
S9030000FC
